:10070E00C0F9A4B0999282F88090FFC64079243047
:07071E00191202780010FF20
:1005AA000939FEFDFBF7EFDFBF7FFF0944EFBDF717
:1005BA00DE7BEFBD07FFC100014E00C102025252AD
:1005CA005008290000000000000000083100000067
:1005DA000000000000042301020304015000012767
:0405EA0000012800E4
:05073B00F8E65FF5A0E7
:0D0740007F4E7E00EF1F70011E144E70F7FB
:01074D002289
:1006F400E5A2543FF5A275985075D7E075D6FE75FE
:0A0704008E14438E01D2ACD2AF2256
:1003DD00C2CCD2B3E52390070E93F5A0120740C20D
:1003ED00B3D2B4E5277008E52490071A93F5A0E57C
:1003FD0027B40108E52490070E93F5A0120740C21B
:10040D00B4D2B5E52590070E93F5A0120740C2B5FD
:10041D00D2B6E52693F5A012074075A0FFC2B6D25D
:10042D00B774442531F8E6FF7439252912073B7559
:10043D00A0FFC2B7D29274442532F8E6FF74392575
:10044D002A12073B75A0FFC292D29374442533F84C
:10045D00E6FF7439252B12073B75A0FFC293D2948A
:10046D0074442534F8E6FF7439252C12073B75A02A
:10047D00FFC294D29574442535F8E6FF7439252DC5
:10048D0012073B75A0FFC295D29674442536F8E647
:10049D00FF7439252E12073B75A0FFC296D29774B3
:1004AD00442537F8E6FF7439252F12073B75A0FF59
:1004BD00C297D2CC74442538F8E6FF74392530F84C
:0704CD00E65FF5A002074005
:030023000202785E
:0D027800C0E0C0F0C083C082C0D075D008C7
:100285002098030203CBAD99C298E54E7027200054
:1002950008ED752100F5228017EDFEEE4221E553AC
:1002A500B52207E552B52102054E752100752200DC
:1002B500B2000203CBE54EB4040EED24D0FFC454C6
:1002C500F0F54F054E0203CBE54EB4050AED24D0FB
:1002D500424F054E0203CBE54EB4060EED24D0FF8A
:1002E500C454F0F551054E0203CBE54EB4070AEDB3
:1002F50024D04251054E0203CBE54EB4080EED2441
:10030500D0FFC454F0F54D054E0203CBE54EB409BC
:100315000AED24D0424D054E0203CBE54ED3940998
:10032500400ABD2C07D202054E0203CB2002030270
:1003350003C9ED6441600B754F00755100754D00A3
:10034500807BE54F600F6401600BE54F641060052D
:10035500E54FB4110474088042E54FC39402400789
:10036500E54FD39409400EE54FC39412400BE54F7A
:10037500D394155004740E8022E54FC39416400B98
:10038500E54FD39419500474EA8010E54FC39414D3
:10039500400DE54FD39424500674E4254FF54FE501
:1003A50010B54D0BE512B55106E511654F600ED23E
:1003B500AB854F11855112854D101206C8754E003B
:0D03C500C2028002054E309904C299C201A7
:0B03D200D0D0D082D083D0F0D0E03239
:1000260012075C12077212062B75B2F8E4F5B17569
:1000360096FFF5957592FFF59175CA10F5C91206EA
:10004600F4E528600302026F120725E51030E01F71
:10005600752701E511C4540FF523E511540FF52456
:10006600E512C4540FF525E512540FF5268003E476
:10007600F527E4FF74312FF8A6070FBF08F67F08AF
:1000860078297408F608DFFC7F08E510B40103E45C
:10009600F529E510B40203752901E510B4030375CB
:1000A6002902E510B40403752903E510B4050375A8
:1000B6002904E510B40603752905E510B407037590
:1000C6002906E510B40803752907E510B40903E409
:1000D600F52AE510B41003752A01E510B41103756D
:1000E6002A02E510B41203752A03E510B41303754A
:1000F6002A04E510B41403752A05E510B415037532
:100106002A06E510B41603752A07E510B41703E4AA
:10011600F52BE510B41803752B01E510B41903751A
:100126002B02E510B42003752B03E510B4210375EB
:100136002B04E510B42203752B05E510B4230375D3
:100146002B06E510B42403752B07E510B42503E44C
:10015600F52CE510B42603752C01E510B4270375BC
:100166002C02E510B42803752C03E510B429037599
:100176002C04E510B43003752C05E510B431037575
:100186002C06E510B43203752C07E510B43303E4EE
:10019600F52DE510B43403752D01E510B43503755E
:1001A6002D02E510B43603752D03E510B43703753B
:1001B6002D04E510B43803752D05E510B439037523
:1001C6002D06E510B44003752D07E510B44103E490
:1001D600F52EE510B44203752E01E510B443037500
:1001E6002E02E510B44403752E03E510B4450375DD
:1001F6002E04E510B44603752E05E510B4470375C5
:100206002E06E510B44803752E07E510B44903E43D
:10021600F52FE510B45003752F01E510B4510375A1
:100226002F02E510B45203752F03E510B45303757E
:100236002F04E510B45403752F05E510B455037566
:100246002F06E510B45603752F07E510B45703E4DF
:10025600F530E510B45803753001E510B45903754F
:100266003002E51070037530031203DD12074002F9
:0202760000473F
:0A0768008082845517150101131358
:04066600E4FD7F8EA2
:10066A00D2CDE4FEC2B2EF1392B1EFC313FFD2B2FE
:10067A000EBE08F0E4FEC2B2ED1392B1EDC313FD53
:0C068A00D2B20EBE08F0C2CDC2B2C2B1A6
:010696002241
:10069700D2CDE4FDC2B2EF1392B1EFC313FFD2B2D2
:1006A7000DBD08F0E4FDC2B2EEC313FE30B1034343
:1006B7000680D2B20DBD08EEC2CDC2B2C2B1AF063E
:0106C7002210
:100725007F811206978F107F831206978F127F8520
:060735001206978F11224D
:1006C800120666E5104480FD7F8012066AAD127F2F
:1006D8008212066AAD117F8412066AE510547FFD06
:0C06E8007F8012066A7D807F8E02066A09
:10000300AC07AB05EC25E0FC5304FE4304C0120629
:0F00130066AF04AD0312066A7D807F8E02066A17
:0E074E00EF25E0FF4307014307C01206972284
:10062B00C2CDC2B2C2B17F1E12074EAC07EC64033F
:10063B0060287C037D037F1E120003120666E4FC18
:10064B00EC90076893FFEC90076B93FD12066A0C16
:0A065B00BC03ED7D807F8E12066A5D
:010665002272
:07077200C2CDC2B2C2B122E8
:0C075C00759D03E4F5BDF5BE75BC802260
:1005EF00EF4488F5BC000000000000E5BC30E4FBE0
:1005FF0053BCEFE4F5F012058BAFBDE48FF012059D
:10060F008B120560AEF07802C333CE33CED8F9AD7E
:0C061F00BE7C002DFFEC3E8FF002058B2E
:030000000204D423
:0C04D400787FE4F6D8FD75815302051B0B
:10056000BB010A89828A83E0F5F0A3E02250068766
:10057000F009E71922BBFE07E3F5F009E319228928
:0B058000828A83E493F5F0740193225B
:10058B00BB010A89828A83F0E5F0A3F0225006F7BB
:0F059B0009A7F01922BBFE06F3E5F009F31922B8
:1004E000020026E493A3F8E493A34003F68001F20C
:1004F00008DFF48029E493A3F85407240CC8C3331D
:10050000C4540F4420C8834004F456800146F6DFEB
:10051000E4800B01020408102040809005AAE47ECC
:10052000019360BCA3FF543F30E509541FFEE493E0
:10053000A360010ECF54C025E060A840B8E493A3A7
:10054000FAE493A3F8E493A3C8C582C8CAC583CAD2
:10055000F0A3C8C582C8CAC583CADFE9DEE780BE8A
:0105EE00000C
:00000001FF
